{
  "contractName": "Election",
  "abi": [
    {
      "inputs": [
        {
          "internalType": "address",
          "name": "",
          "type": "address"
        }
      ],
      "name": "a2id",
      "outputs": [
        {
          "internalType": "uint256",
          "name": "",
          "type": "uint256"
        }
      ],
      "stateMutability": "view",
      "type": "function",
      "constant": true
    },
    {
      "inputs": [],
      "name": "admin",
      "outputs": [
        {
          "internalType": "bool",
          "name": "",
          "type": "bool"
        }
      ],
      "stateMutability": "view",
      "type": "function",
      "constant": true
    },
    {
      "inputs": [
        {
          "internalType": "uint256",
          "name": "",
          "type": "uint256"
        }
      ],
      "name": "candidates",
      "outputs": [
        {
          "internalType": "uint256",
          "name": "id",
          "type": "uint256"
        },
        {
          "internalType": "string",
          "name": "name",
          "type": "string"
        },
        {
          "internalType": "uint256",
          "name": "age",
          "type": "uint256"
        },
        {
          "internalType": "string",
          "name": "party",
          "type": "string"
        },
        {
          "internalType": "string",
          "name": "qualification",
          "type": "string"
        },
        {
          "internalType": "uint256",
          "name": "voteCount",
          "type": "uint256"
        },
        {
          "internalType": "string",
          "name": "ipfsHash",
          "type": "string"
        }
      ],
      "stateMutability": "view",
      "type": "function",
      "constant": true
    },
    {
      "inputs": [],
      "name": "candidatesCount",
      "outputs": [
        {
          "internalType": "uint256",
          "name": "",
          "type": "uint256"
        }
      ],
      "stateMutability": "view",
      "type": "function",
      "constant": true
    },
    {
      "inputs": [],
      "name": "currVoter",
      "outputs": [
        {
          "internalType": "address",
          "name": "",
          "type": "address"
        }
      ],
      "stateMutability": "view",
      "type": "function",
      "constant": true
    },
    {
      "inputs": [],
      "name": "electionState",
      "outputs": [
        {
          "internalType": "uint256",
          "name": "",
          "type": "uint256"
        }
      ],
      "stateMutability": "view",
      "type": "function",
      "constant": true
    },
    {
      "inputs": [
        {
          "internalType": "address",
          "name": "",
          "type": "address"
        }
      ],
      "name": "register",
      "outputs": [
        {
          "internalType": "address",
          "name": "uid",
          "type": "address"
        },
        {
          "internalType": "string",
          "name": "aadhar",
          "type": "string"
        },
        {
          "internalType": "string",
          "name": "password",
          "type": "string"
        },
        {
          "internalType": "bool",
          "name": "verified",
          "type": "bool"
        }
      ],
      "stateMutability": "view",
      "type": "function",
      "constant": true
    },
    {
      "inputs": [
        {
          "internalType": "uint256",
          "name": "",
          "type": "uint256"
        }
      ],
      "name": "registertemp",
      "outputs": [
        {
          "internalType": "address",
          "name": "uid",
          "type": "address"
        },
        {
          "internalType": "string",
          "name": "aadhar",
          "type": "string"
        },
        {
          "internalType": "string",
          "name": "password",
          "type": "string"
        },
        {
          "internalType": "bool",
          "name": "verified",
          "type": "bool"
        }
      ],
      "stateMutability": "view",
      "type": "function",
      "constant": true
    },
    {
      "inputs": [],
      "name": "votedCount",
      "outputs": [
        {
          "internalType": "uint256",
          "name": "",
          "type": "uint256"
        }
      ],
      "stateMutability": "view",
      "type": "function",
      "constant": true
    },
    {
      "inputs": [
        {
          "internalType": "address",
          "name": "",
          "type": "address"
        }
      ],
      "name": "voters",
      "outputs": [
        {
          "internalType": "bool",
          "name": "",
          "type": "bool"
        }
      ],
      "stateMutability": "view",
      "type": "function",
      "constant": true
    },
    {
      "inputs": [],
      "name": "votersCount",
      "outputs": [
        {
          "internalType": "uint256",
          "name": "",
          "type": "uint256"
        }
      ],
      "stateMutability": "view",
      "type": "function",
      "constant": true
    },
    {
      "inputs": [],
      "name": "reset",
      "outputs": [],
      "stateMutability": "nonpayable",
      "type": "function"
    },
    {
      "inputs": [
        {
          "internalType": "address",
          "name": "_address",
          "type": "address"
        }
      ],
      "name": "SetVoter",
      "outputs": [],
      "stateMutability": "nonpayable",
      "type": "function"
    },
    {
      "inputs": [
        {
          "internalType": "address",
          "name": "_address",
          "type": "address"
        }
      ],
      "name": "verify",
      "outputs": [],
      "stateMutability": "nonpayable",
      "type": "function"
    },
    {
      "inputs": [],
      "name": "verifyall",
      "outputs": [],
      "stateMutability": "nonpayable",
      "type": "function"
    },
    {
      "inputs": [],
      "name": "getUsername",
      "outputs": [
        {
          "internalType": "string",
          "name": "status",
          "type": "string"
        }
      ],
      "stateMutability": "nonpayable",
      "type": "function"
    },
    {
      "inputs": [],
      "name": "getPassword",
      "outputs": [
        {
          "internalType": "string",
          "name": "status",
          "type": "string"
        }
      ],
      "stateMutability": "nonpayable",
      "type": "function"
    },
    {
      "inputs": [
        {
          "internalType": "bool",
          "name": "_admin",
          "type": "bool"
        }
      ],
      "name": "setAdmin",
      "outputs": [],
      "stateMutability": "nonpayable",
      "type": "function"
    },
    {
      "inputs": [
        {
          "internalType": "string",
          "name": "_name",
          "type": "string"
        },
        {
          "internalType": "uint256",
          "name": "_age",
          "type": "uint256"
        },
        {
          "internalType": "string",
          "name": "_party",
          "type": "string"
        },
        {
          "internalType": "string",
          "name": "_qualification",
          "type": "string"
        }
      ],
      "name": "addCandidate",
      "outputs": [
        {
          "internalType": "string",
          "name": "status",
          "type": "string"
        }
      ],
      "stateMutability": "nonpayable",
      "type": "function"
    },
    {
      "inputs": [
        {
          "internalType": "address",
          "name": "_address",
          "type": "address"
        },
        {
          "internalType": "string",
          "name": "_aadhar",
          "type": "string"
        },
        {
          "internalType": "string",
          "name": "_password",
          "type": "string"
        }
      ],
      "name": "registration",
      "outputs": [],
      "stateMutability": "nonpayable",
      "type": "function"
    },
    {
      "inputs": [
        {
          "internalType": "uint256",
          "name": "_state",
          "type": "uint256"
        }
      ],
      "name": "changeState",
      "outputs": [],
      "stateMutability": "nonpayable",
      "type": "function"
    },
    {
      "inputs": [
        {
          "internalType": "uint256",
          "name": "_candidateId",
          "type": "uint256"
        },
        {
          "internalType": "address",
          "name": "_voter",
          "type": "address"
        }
      ],
      "name": "vote",
      "outputs": [],
      "stateMutability": "nonpayable",
      "type": "function"
    }
  ],
  "bytecode": "0x608060405260006005556000600655600060075560016008556040518060400160405280600981526020017f766564616e746736380000000000000000000000000000000000000000000000815250600990816200005e91906200034f565b506040518060400160405280600581526020017f696e646961000000000000000000000000000000000000000000000000000000815250600a9081620000a591906200034f565b506000600b60006101000a81548160ff021916908315150217905550348015620000ce57600080fd5b5062000436565b600081519050919050565b7f4e487b7100000000000000000000000000000000000000000000000000000000600052604160045260246000fd5b7f4e487b7100000000000000000000000000000000000000000000000000000000600052602260045260246000fd5b600060028204905060018216806200015757607f821691505b6020821081036200016d576200016c6200010f565b5b50919050565b60008190508160005260206000209050919050565b60006020601f8301049050919050565b600082821b905092915050565b600060088302620001d77fffffffffffffffffffffffffffffffffffffffffffffffffffffffffffffffff8262000198565b620001e3868362000198565b95508019841693508086168417925050509392505050565b6000819050919050565b6000819050919050565b6000620002306200022a6200022484620001fb565b62000205565b620001fb565b9050919050565b6000819050919050565b6200024c836200020f565b620002646200025b8262000237565b848454620001a5565b825550505050565b600090565b6200027b6200026c565b6200028881848462000241565b505050565b5b81811015620002b057620002a460008262000271565b6001810190506200028e565b5050565b601f821115620002ff57620002c98162000173565b620002d48462000188565b81016020851015620002e4578190505b620002fc620002f38562000188565b8301826200028d565b50505b505050565b600082821c905092915050565b6000620003246000198460080262000304565b1980831691505092915050565b60006200033f838362000311565b9150826002028217905092915050565b6200035a82620000d5565b67ffffffffffffffff811115620003765762000375620000e0565b5b6200038282546200013e565b6200038f828285620002b4565b600060209050601f831160018114620003c75760008415620003b2578287015190505b620003be858262000331565b8655506200042e565b601f198416620003d78662000173565b60005b828110156200040157848901518255600182019150602085019450602081019050620003da565b868310156200042157848901516200041d601f89168262000311565b8355505b6001600288020188555050505b505050505050565b611bdf80620004466000396000f3fe608060405234801561001057600080fd5b50600436106101425760003560e01c8063982da7c4116100b8578063b95d78281161007c578063b95d78281461036c578063c6ff12741461039f578063cc8e2394146103bb578063d826f88f146103d9578063f0232d0a146103e3578063f851a4401461040157610142565b8063982da7c4146102b657806398c07938146102d2578063a3ec138d146102f0578063af36cdc214610320578063b00741cb1461035057610142565b80634420e4861161010a5780634420e4861461020557806351073ad01461023857806362546f601461025457806363a9c3d714610272578063681f3e6d1461028e5780637ea1bbf5146102ac57610142565b806302d947ef146101475780631c1d3baf146101635780632280043d146101935780632d35a8a2146101b15780633477ee2e146101cf575b600080fd5b610161600480360381019061015c91906112c3565b61041f565b005b61017d60048036038101906101789190611449565b610516565b60405161018a919061158c565b60405180910390f35b61019b610678565b6040516101a891906115bd565b60405180910390f35b6101b961067e565b6040516101c691906115bd565b60405180910390f35b6101e960048036038101906101e491906115d8565b610684565b6040516101fc9796959493929190611605565b60405180910390f35b61021f600480360381019061021a9190611690565b6108e6565b60405161022f94939291906116e7565b60405180910390f35b610252600480360381019061024d919061173a565b610a53565b005b61025c610ca9565b60405161026991906117c5565b60405180910390f35b61028c60048036038101906102879190611690565b610ccf565b005b610296610d99565b6040516102a3919061158c565b60405180910390f35b6102b4610e2b565b005b6102d060048036038101906102cb919061180c565b610f0f565b005b6102da610f2c565b6040516102e791906115bd565b60405180910390f35b61030a60048036038101906103059190611690565b610f32565b6040516103179190611839565b60405180910390f35b61033a60048036038101906103359190611690565b610f52565b60405161034791906115bd565b60405180910390f35b61036a600480360381019061036591906115d8565b610f6a565b005b610386600480360381019061038191906115d8565b610f82565b60405161039694939291906116e7565b60405180910390f35b6103b960048036038101906103b49190611690565b6110ef565b005b6103c3611133565b6040516103d0919061158c565b60405180910390f35b6103e16111c5565b005b6103eb611202565b6040516103f891906115bd565b60405180910390f35b610409611208565b6040516104169190611839565b60405180910390f35b600360008273ffffffffffffffffffffffffffffffffffffffff1673ffffffffffffffffffffffffffffffffffffffff16815260200190815260200160002060009054906101000a900460ff161561047657600080fd5b6007600081548092919061048990611883565b91905055506001600360008373ffffffffffffffffffffffffffffffffffffffff1673ffffffffffffffffffffffffffffffffffffffff16815260200190815260200160002060006101000a81548160ff02191690831515021790555060046000838152602001908152602001600020600501600081548092919061050d90611883565b91905055505050565b606060016008541461052757600080fd5b6005600081548092919061053a90611883565b91905055506040518060e001604052806005548152602001868152602001858152602001848152602001838152602001600081526020016040518060400160405280600881526020017f4e6f20496d6167650000000000000000000000000000000000000000000000008152508152506004600060055481526020019081526020016000206000820151816000015560208201518160010190816105de9190611ad7565b506040820151816002015560608201518160030190816105fe9190611ad7565b5060808201518160040190816106149190611ad7565b5060a0820151816005015560c08201518160060190816106349190611ad7565b509050506040518060400160405280600681526020017f73756365737300000000000000000000000000000000000000000000000000008152509050949350505050565b60085481565b60055481565b60046020528060005260406000206000915090508060000154908060010180546106ad906118fa565b80601f01602080910402602001604051908101604052809291908181526020018280546106d9906118fa565b80156107265780601f106106fb57610100808354040283529160200191610726565b820191906000526020600020905b81548152906001019060200180831161070957829003601f168201915b505050505090806002015490806003018054610741906118fa565b80601f016020809104026020016040519081016040528092919081815260200182805461076d906118fa565b80156107ba5780601f1061078f576101008083540402835291602001916107ba565b820191906000526020600020905b81548152906001019060200180831161079d57829003601f168201915b5050505050908060040180546107cf906118fa565b80601f01602080910402602001604051908101604052809291908181526020018280546107fb906118fa565b80156108485780601f1061081d57610100808354040283529160200191610848565b820191906000526020600020905b81548152906001019060200180831161082b57829003601f168201915b505050505090806005015490806006018054610863906118fa565b80601f016020809104026020016040519081016040528092919081815260200182805461088f906118fa565b80156108dc5780601f106108b1576101008083540402835291602001916108dc565b820191906000526020600020905b8154815290600101906020018083116108bf57829003601f168201915b5050505050905087565b60006020528060005260406000206000915090508060000160009054906101000a900473ffffffffffffffffffffffffffffffffffffffff169080600101805461092f906118fa565b80601f016020809104026020016040519081016040528092919081815260200182805461095b906118fa565b80156109a85780601f1061097d576101008083540402835291602001916109a8565b820191906000526020600020905b81548152906001019060200180831161098b57829003601f168201915b5050505050908060020180546109bd906118fa565b80601f01602080910402602001604051908101604052809291908181526020018280546109e9906118fa565b8015610a365780601f10610a0b57610100808354040283529160200191610a36565b820191906000526020600020905b815481529060010190602001808311610a1957829003601f168201915b5050505050908060030160009054906101000a900460ff16905084565b60066000815480929190610a6690611883565b9190505550600654600260008573ffffffffffffffffffffffffffffffffffffffff1673ffffffffffffffffffffffffffffffffffffffff1681526020019081526020016000208190555060405180608001604052808473ffffffffffffffffffffffffffffffffffffffff1681526020018381526020018281526020016000151581525060016000600654815260200190815260200160002060008201518160000160006101000a81548173ffffffffffffffffffffffffffffffffffffffff021916908373ffffffffffffffffffffffffffffffffffffffff1602179055506020820151816001019081610b5c9190611ad7565b506040820151816002019081610b729190611ad7565b5060608201518160030160006101000a81548160ff02191690831515021790555090505060405180608001604052808473ffffffffffffffffffffffffffffffffffffffff168152602001838152602001828152602001600015158152506000808573ffffffffffffffffffffffffffffffffffffffff1673ffffffffffffffffffffffffffffffffffffffff16815260200190815260200160002060008201518160000160006101000a81548173ffffffffffffffffffffffffffffffffffffffff021916908373ffffffffffffffffffffffffffffffffffffffff1602179055506020820151816001019081610c6a9190611ad7565b506040820151816002019081610c809190611ad7565b5060608201518160030160006101000a81548160ff021916908315150217905550905050505050565b600b60019054906101000a900473ffffffffffffffffffffffffffffffffffffffff1681565b60016000808373ffffffffffffffffffffffffffffffffffffffff1673ffffffffffffffffffffffffffffffffffffffff16815260200190815260200160002060030160006101000a81548160ff0219169083151502179055506001806000600260008573ffffffffffffffffffffffffffffffffffffffff1673ffffffffffffffffffffffffffffffffffffffff16815260200190815260200160002054815260200190815260200160002060030160006101000a81548160ff02191690831515021790555050565b606060098054610da8906118fa565b80601f0160208091040260200160405190810160405280929190818152602001828054610dd4906118fa565b8015610e215780601f10610df657610100808354040283529160200191610e21565b820191906000526020600020905b815481529060010190602001808311610e0457829003601f168201915b5050505050905090565b6000600190505b6006548111610f0c57600180600083815260200190815260200160002060030160006101000a81548160ff02191690831515021790555060016000806001600085815260200190815260200160002060000160009054906101000a900473ffffffffffffffffffffffffffffffffffffffff1673ffffffffffffffffffffffffffffffffffffffff1673ffffffffffffffffffffffffffffffffffffffff16815260200190815260200160002060030160006101000a81548160ff0219169083151502179055508080610f0490611883565b915050610e32565b50565b80600b60006101000a81548160ff02191690831515021790555050565b60065481565b60036020528060005260406000206000915054906101000a900460ff1681565b60026020528060005260406000206000915090505481565b6008548111610f7857600080fd5b8060088190555050565b60016020528060005260406000206000915090508060000160009054906101000a900473ffffffffffffffffffffffffffffffffffffffff1690806001018054610fcb906118fa565b80601f0160208091040260200160405190810160405280929190818152602001828054610ff7906118fa565b80156110445780601f1061101957610100808354040283529160200191611044565b820191906000526020600020905b81548152906001019060200180831161102757829003601f168201915b505050505090806002018054611059906118fa565b80601f0160208091040260200160405190810160405280929190818152602001828054611085906118fa565b80156110d25780601f106110a7576101008083540402835291602001916110d2565b820191906000526020600020905b8154815290600101906020018083116110b557829003601f168201915b5050505050908060030160009054906101000a900460ff16905084565b80600b60016101000a81548173ffffffffffffffffffffffffffffffffffffffff021916908373ffffffffffffffffffffffffffffffffffffffff16021790555050565b6060600a8054611142906118fa565b80601f016020809104026020016040519081016040528092919081815260200182805461116e906118fa565b80156111bb5780601f10611190576101008083540402835291602001916111bb565b820191906000526020600020905b81548152906001019060200180831161119e57829003601f168201915b5050505050905090565b60006005819055506000600681905550600060078190555060016008819055506000600b60006101000a81548160ff021916908315150217905550565b60075481565b600b60009054906101000a900460ff1681565b6000604051905090565b600080fd5b600080fd5b6000819050919050565b6112428161122f565b811461124d57600080fd5b50565b60008135905061125f81611239565b92915050565b600073ffffffffffffffffffffffffffffffffffffffff82169050919050565b600061129082611265565b9050919050565b6112a081611285565b81146112ab57600080fd5b50565b6000813590506112bd81611297565b92915050565b600080604083850312156112da576112d9611225565b5b60006112e885828601611250565b92505060206112f9858286016112ae565b9150509250929050565b600080fd5b600080fd5b6000601f19601f8301169050919050565b7f4e487b7100000000000000000000000000000000000000000000000000000000600052604160045260246000fd5b6113568261130d565b810181811067ffffffffffffffff821117156113755761137461131e565b5b80604052505050565b600061138861121b565b9050611394828261134d565b919050565b600067ffffffffffffffff8211156113b4576113b361131e565b5b6113bd8261130d565b9050602081019050919050565b82818337600083830152505050565b60006113ec6113e784611399565b61137e565b90508281526020810184848401111561140857611407611308565b5b6114138482856113ca565b509392505050565b600082601f8301126114305761142f611303565b5b81356114408482602086016113d9565b91505092915050565b6000806000806080858703121561146357611462611225565b5b600085013567ffffffffffffffff8111156114815761148061122a565b5b61148d8782880161141b565b945050602061149e87828801611250565b935050604085013567ffffffffffffffff8111156114bf576114be61122a565b5b6114cb8782880161141b565b925050606085013567ffffffffffffffff8111156114ec576114eb61122a565b5b6114f88782880161141b565b91505092959194509250565b600081519050919050565b600082825260208201905092915050565b60005b8381101561153e578082015181840152602081019050611523565b8381111561154d576000848401525b50505050565b600061155e82611504565b611568818561150f565b9350611578818560208601611520565b6115818161130d565b840191505092915050565b600060208201905081810360008301526115a68184611553565b905092915050565b6115b78161122f565b82525050565b60006020820190506115d260008301846115ae565b92915050565b6000602082840312156115ee576115ed611225565b5b60006115fc84828501611250565b91505092915050565b600060e08201905061161a600083018a6115ae565b818103602083015261162c8189611553565b905061163b60408301886115ae565b818103606083015261164d8187611553565b905081810360808301526116618186611553565b905061167060a08301856115ae565b81810360c08301526116828184611553565b905098975050505050505050565b6000602082840312156116a6576116a5611225565b5b60006116b4848285016112ae565b91505092915050565b6116c681611285565b82525050565b60008115159050919050565b6116e1816116cc565b82525050565b60006080820190506116fc60008301876116bd565b818103602083015261170e8186611553565b905081810360408301526117228185611553565b905061173160608301846116d8565b95945050505050565b60008060006060848603121561175357611752611225565b5b6000611761868287016112ae565b935050602084013567ffffffffffffffff8111156117825761178161122a565b5b61178e8682870161141b565b925050604084013567ffffffffffffffff8111156117af576117ae61122a565b5b6117bb8682870161141b565b9150509250925092565b60006020820190506117da60008301846116bd565b92915050565b6117e9816116cc565b81146117f457600080fd5b50565b600081359050611806816117e0565b92915050565b60006020828403121561182257611821611225565b5b6000611830848285016117f7565b91505092915050565b600060208201905061184e60008301846116d8565b92915050565b7f4e487b7100000000000000000000000000000000000000000000000000000000600052601160045260246000fd5b600061188e8261122f565b91507fffffffffffffffffffffffffffffffffffffffffffffffffffffffffffffffff82036118c0576118bf611854565b5b600182019050919050565b7f4e487b7100000000000000000000000000000000000000000000000000000000600052602260045260246000fd5b6000600282049050600182168061191257607f821691505b602082108103611925576119246118cb565b5b50919050565b60008190508160005260206000209050919050565b60006020601f8301049050919050565b600082821b905092915050565b60006008830261198d7fffffffffffffffffffffffffffffffffffffffffffffffffffffffffffffffff82611950565b6119978683611950565b95508019841693508086168417925050509392505050565b6000819050919050565b60006119d46119cf6119ca8461122f565b6119af565b61122f565b9050919050565b6000819050919050565b6119ee836119b9565b611a026119fa826119db565b84845461195d565b825550505050565b600090565b611a17611a0a565b611a228184846119e5565b505050565b5b81811015611a4657611a3b600082611a0f565b600181019050611a28565b5050565b601f821115611a8b57611a5c8161192b565b611a6584611940565b81016020851015611a74578190505b611a88611a8085611940565b830182611a27565b50505b505050565b600082821c905092915050565b6000611aae60001984600802611a90565b1980831691505092915050565b6000611ac78383611a9d565b9150826002028217905092915050565b611ae082611504565b67ffffffffffffffff811115611af957611af861131e565b5b611b0382546118fa565b611b0e828285611a4a565b600060209050601f831160018114611b415760008415611b2f578287015190505b611b398582611abb565b865550611ba1565b601f198416611b4f8661192b565b60005b82811015611b7757848901518255600182019150602085019450602081019050611b52565b86831015611b945784890151611b90601f891682611a9d565b8355505b6001600288020188555050505b50505050505056fea2646970667358221220ad43f2a9fc9ce39b317254462c809b8d54ed0fd35009606fc51e50134a1a789464736f6c634300080f0033",
  "immutableReferences": {},
  "source": "pragma solidity >=0.5.0;\r\n\r\ncontract Election{\r\n    // model a condidate \r\n    struct Candidate{\r\n      uint id;\r\n      string name;\r\n      uint age;\r\n      string party;\r\n      string qualification;\r\n      uint voteCount;\r\n      string ipfsHash;\r\n    }\r\n    struct Voter{\r\n      address uid;\r\n      string aadhar;\r\n      string password;\r\n      bool verified;\r\n    }\r\n    //Registered voters\r\n    mapping(address => Voter) public register;\r\n    mapping(uint => Voter) public registertemp;\r\n    mapping(address => uint) public a2id;\r\n    // store accounts that have voted\r\n    mapping(address => bool) public voters;\r\n   // store a candiate \r\n   // fetch candidate \r\n    mapping(uint => Candidate) public candidates;\r\n    // store candidate count\r\n    uint public candidatesCount=0;\r\n    uint public votersCount=0;\r\n    uint public votedCount=0;\r\n    // Election State\r\n    uint public electionState=1;\r\n    // Admin login\r\n    string private username = \"vedantg68\";\r\n    string private password = \"india\";\r\n    bool public admin = false;\r\n    address public currVoter;\r\n    // constructor() public{\r\n    //   addCandidate(\"candidate 1\",34,\"AAP\",\"Phd\");\r\n    // }\r\n    function reset() public\r\n    {\r\n     \r\n          candidatesCount=0;\r\n          votersCount=0;\r\n          votedCount=0;\r\n          electionState=1;\r\n          admin=false;\r\n     \r\n    }\r\n    function SetVoter(address _address) public\r\n    {\r\n        currVoter = _address;\r\n    }\r\n    function verify(address _address) public\r\n    {\r\n      register[_address].verified = true;\r\n      registertemp[a2id[_address]].verified = true;\r\n    }\r\n    function verifyall() public{\r\n      for(uint i=1;i<=votersCount;i++){\r\n        registertemp[i].verified = true;\r\n        register[registertemp[i].uid].verified = true;\r\n      }\r\n    }\r\n    function getUsername() public returns(string memory status)\r\n    {\r\n      return username;\r\n    }\r\n    function getPassword() public returns(string memory status)\r\n    {\r\n      return password;\r\n    }\r\n    function setAdmin(bool _admin) public{\r\n      admin = _admin;\r\n    }\r\n    function addCandidate (string memory _name,uint _age,string memory _party,string memory _qualification) public returns(string memory status) {\r\n      require(electionState==1);\r\n      candidatesCount++;\r\n      candidates[candidatesCount] = Candidate(candidatesCount,_name,_age,_party,_qualification,0,\"No Image\");\r\n      return \"sucess\";\r\n    }\r\n    function registration (address _address,string memory _aadhar,string memory _password) public \r\n    {\r\n      votersCount++;\r\n      a2id[_address] = votersCount;\r\n      registertemp[votersCount] = Voter(_address,_aadhar,_password,false);\r\n      register[_address] = Voter(_address,_aadhar,_password,false);\r\n      \r\n    }\r\n    function changeState(uint _state) public {\r\n      require(_state>electionState);\r\n      electionState = _state;\r\n    }\r\n    function vote(uint _candidateId,address _voter) public {\r\n      // address has not voted before\r\n      require(!voters[_voter]);\r\n      votedCount++;\r\n      // update the voter has voted\r\n      voters[_voter] = true;\r\n      //update the votes of candidate\r\n      candidates[_candidateId].voteCount ++;\r\n    }\r\n\r\n}",
  "sourcePath": "D:\\Blockchain\\election2\\contracts\\Election.sol",
  "compiler": {
    "name": "solc",
    "version": "0.8.15+commit.e14f2714.Emscripten.clang"
  },
  "schemaVersion": "3.4.8",
  "updatedAt": "2022-09-12T07:59:44.454Z",
  "networkType": "ethereum",
  "devdoc": {
    "kind": "dev",
    "methods": {},
    "version": 1
  },
  "userdoc": {
    "kind": "user",
    "methods": {},
    "version": 1
  }
}